{
  "contractName": "DataStoreLibrary",
  "abi": [
    {
      "constant": true,
      "inputs": [
        {
          "name": "scope",
          "type": "address"
        },
        {
          "name": "key",
          "type": "bytes32"
        }
      ],
      "name": "hashScopeKey",
      "outputs": [
        {
          "name": "hash",
          "type": "bytes32"
        }
      ],
      "payable": false,
      "stateMutability": "pure",
      "type": "function"
    },
    {
      "constant": false,
      "inputs": [
        {
          "name": "self",
          "type": "DataStoreLibrary.Data storage"
        },
        {
          "name": "scope",
          "type": "address"
        },
        {
          "name": "key",
          "type": "bytes32"
        },
        {
          "name": "value",
          "type": "int256"
        }
      ],
      "name": "setIntData",
      "outputs": [],
      "payable": false,
      "stateMutability": "nonpayable",
      "type": "function"
    },
    {
      "constant": true,
      "inputs": [
        {
          "name": "self",
          "type": "DataStoreLibrary.Data storage"
        },
        {
          "name": "scope",
          "type": "address"
        },
        {
          "name": "key",
          "type": "bytes32"
        }
      ],
      "name": "getIntData",
      "outputs": [
        {
          "name": "value",
          "type": "int256"
        }
      ],
      "payable": false,
      "stateMutability": "view",
      "type": "function"
    },
    {
      "constant": false,
      "inputs": [
        {
          "name": "self",
          "type": "DataStoreLibrary.Data storage"
        },
        {
          "name": "scope",
          "type": "address"
        },
        {
          "name": "key",
          "type": "bytes32"
        },
        {
          "name": "value",
          "type": "uint256"
        }
      ],
      "name": "setUintData",
      "outputs": [],
      "payable": false,
      "stateMutability": "nonpayable",
      "type": "function"
    },
    {
      "constant": true,
      "inputs": [
        {
          "name": "self",
          "type": "DataStoreLibrary.Data storage"
        },
        {
          "name": "scope",
          "type": "address"
        },
        {
          "name": "key",
          "type": "bytes32"
        }
      ],
      "name": "getUintData",
      "outputs": [
        {
          "name": "value",
          "type": "uint256"
        }
      ],
      "payable": false,
      "stateMutability": "view",
      "type": "function"
    },
    {
      "constant": false,
      "inputs": [
        {
          "name": "self",
          "type": "DataStoreLibrary.Data storage"
        },
        {
          "name": "scope",
          "type": "address"
        },
        {
          "name": "key",
          "type": "bytes32"
        },
        {
          "name": "value",
          "type": "string"
        }
      ],
      "name": "setStringData",
      "outputs": [],
      "payable": false,
      "stateMutability": "nonpayable",
      "type": "function"
    },
    {
      "constant": true,
      "inputs": [
        {
          "name": "self",
          "type": "DataStoreLibrary.Data storage"
        },
        {
          "name": "scope",
          "type": "address"
        },
        {
          "name": "key",
          "type": "bytes32"
        }
      ],
      "name": "getStringData",
      "outputs": [
        {
          "name": "value",
          "type": "string"
        }
      ],
      "payable": false,
      "stateMutability": "view",
      "type": "function"
    },
    {
      "constant": false,
      "inputs": [
        {
          "name": "self",
          "type": "DataStoreLibrary.Data storage"
        },
        {
          "name": "scope",
          "type": "address"
        },
        {
          "name": "key",
          "type": "bytes32"
        },
        {
          "name": "value",
          "type": "bytes32"
        }
      ],
      "name": "setBytesData",
      "outputs": [],
      "payable": false,
      "stateMutability": "nonpayable",
      "type": "function"
    },
    {
      "constant": true,
      "inputs": [
        {
          "name": "self",
          "type": "DataStoreLibrary.Data storage"
        },
        {
          "name": "scope",
          "type": "address"
        },
        {
          "name": "key",
          "type": "bytes32"
        }
      ],
      "name": "getBytesData",
      "outputs": [
        {
          "name": "value",
          "type": "bytes32"
        }
      ],
      "payable": false,
      "stateMutability": "view",
      "type": "function"
    }
  ],
  "bytecode": "0x61092a610030600b82828239805160001a6073146000811461002057610022565bfe5b5030600052607381538281f30073000000000000000000000000000000000000000030146080604052600436106100b0576000357c0100000000000000000000000000000000000000000000000000000000900463ffffffff16806306dc3dce146100b55780631cfe84d4146101565780632328c4ad146101b85780632713f5b51461021a5780635718367c1461027f5780635a16976d146102e4578063eb7896d81461034d578063ee09d7cd146103b7578063fba5a4b114610417575b600080fd5b8180156100c157600080fd5b5061015460048036038101908080359060200190929190803573ffffffffffffffffffffffffffffffffffffffff1690602001909291908035600019169060200190929190803590602001908201803590602001908080601f01602080910402602001604051908101604052809392919081815260200183838082843782019150505050505091929192905050506104de565b005b6101a260048036038101908080359060200190929190803573ffffffffffffffffffffffffffffffffffffffff1690602001909291908035600019169060200190929190505050610525565b6040518082815260200191505060405180910390f35b61020460048036038101908080359060200190929190803573ffffffffffffffffffffffffffffffffffffffff169060200190929190803560001916906020019092919050505061055c565b6040518082815260200191505060405180910390f35b81801561022657600080fd5b5061027d60048036038101908080359060200190929190803573ffffffffffffffffffffffffffffffffffffffff169060200190929190803560001916906020019092919080359060200190929190505050610593565b005b81801561028b57600080fd5b506102e260048036038101908080359060200190929190803573ffffffffffffffffffffffffffffffffffffffff1690602001909291908035600019169060200190929190803590602001909291905050506105ca565b005b8180156102f057600080fd5b5061034b60048036038101908080359060200190929190803573ffffffffffffffffffffffffffffffffffffffff16906020019092919080356000191690602001909291908035600019169060200190929190505050610601565b005b61039960048036038101908080359060200190929190803573ffffffffffffffffffffffffffffffffffffffff169060200190929190803560001916906020019092919050505061063c565b60405180826000191660001916815260200191505060405180910390f35b6103f9600480360381019080803573ffffffffffffffffffffffffffffffffffffffff1690602001909291908035600019169060200190929190505050610673565b60405180826000191660001916815260200191505060405180910390f35b61046360048036038101908080359060200190929190803573ffffffffffffffffffffffffffffffffffffffff1690602001909291908035600019169060200190929190505050610789565b6040518080602001828103825283818151815260200191508051906020019080838360005b838110156104a3578082015181840152602081019050610488565b50505050905090810190601f1680156104d05780820380516001836020036101000a031916815260200191505b509250505060405180910390f35b60006104ea8484610673565b9050818560020160008360001916600019168152602001908152602001600020908051906020019061051d929190610859565b505050505050565b6000806105328484610673565b90508460000160008260001916600019168152602001908152602001600020549150509392505050565b6000806105698484610673565b90508460010160008260001916600019168152602001908152602001600020549150509392505050565b600061059f8484610673565b9050818560010160008360001916600019168152602001908152602001600020819055505050505050565b60006105d68484610673565b9050818560000160008360001916600019168152602001908152602001600020819055505050505050565b600061060d8484610673565b905081856003016000836000191660001916815260200190815260200160002081600019169055505050505050565b6000806106498484610673565b90508460030160008260001916600019168152602001908152602001600020549150509392505050565b600060028383604051602001808373ffffffffffffffffffffffffffffffffffffffff1673ffffffffffffffffffffffffffffffffffffffff166c010000000000000000000000000281526014018260001916600019168152602001925050506040516020818303038152906040526040518082805190602001908083835b60208310151561071757805182526020820191506020810190506020830392506106f2565b6001836020036101000a0380198251168184511680821785525050505050509050019150506020604051808303816000865af115801561075b573d6000803e3d6000fd5b5050506040513d602081101561077057600080fd5b8101908080519060200190929190505050905092915050565b606060006107978484610673565b905084600201600082600019166000191681526020019081526020016000208054600181600116156101000203166002900480601f01602080910402602001604051908101604052809291908181526020018280546001816001161561010002031660029004801561084a5780601f1061081f5761010080835404028352916020019161084a565b820191906000526020600020905b81548152906001019060200180831161082d57829003601f168201915b50505050509150509392505050565b828054600181600116156101000203166002900490600052602060002090601f016020900481019282601f1061089a57805160ff19168380011785556108c8565b828001600101855582156108c8579182015b828111156108c75782518255916020019190600101906108ac565b5b5090506108d591906108d9565b5090565b6108fb91905b808211156108f75760008160009055506001016108df565b5090565b905600a165627a7a7230582059238b1f76fc3a05cb5f8b1241b3bf148cbef4c2dfa6b5ac393c5c2783a59d5b0029",
  "source": "pragma solidity ^0.4.22;\n\n/** @title Data Store Libary */\n/** @dev I was working on this to use in the upgradeable contract version. */\nlibrary DataStoreLibrary {\n\n    struct Data {\n        mapping ( bytes32 => int256 ) intData;\n        mapping ( bytes32 => uint256 ) uintData;\n        mapping ( bytes32 => string ) stringData;\n        mapping ( bytes32 => bytes32 ) bytesData;\n    }\n\n    /** @dev Hashes the scope (an account or contract address) and key together\n      *      to create a unique identifier for use in a mapping.\n      * @param scope The address of the contract or account setting the key.\n      * @param key The key for the value in this scope.\n      * @return hash The unique identifier for use in a mapping.\n      */\n    function hashScopeKey (address scope, bytes32 key)\n        public\n        pure\n        returns (bytes32 hash)\n    {\n        hash = sha256(abi.encodePacked(scope, key));\n    }\n\n    /** dev Set the int256 value under the key in the scope of the address.\n      * @param scope The address of the contract or account setting the key.\n      * @param key The key for the value in this scope.\n      * @param value The int256 value to set under the key in the scope.\n      */\n    function setIntData (\n        Data storage self,\n        address scope,\n        bytes32 key,\n        int256 value\n    )\n        public\n    {\n        bytes32 keyHash = hashScopeKey(scope, key);\n        self.intData[ keyHash ] = value;\n    }\n\n    /** dev Get the int256 value under the key in the scope of the address.\n      * @param scope The address of the contract or account setting the key.\n      * @param key The key for the value in this scope.\n      * @return value The int256 value stored under the key in the scope.\n      */\n    function getIntData (Data storage self, address scope, bytes32 key)\n        public\n        view\n        returns (int256 value)\n    {\n        bytes32 keyHash = hashScopeKey(scope, key);\n        value = self.intData[ keyHash ];\n    }\n\n    /** dev Set the uint256 value under the key in the scope of the address.\n      * @param scope The address of the contract or account setting the key.\n      * @param key The key for the value in this scope.\n      * @param value The uint256 value to set under the key in the scope.\n      */\n    function setUintData (\n        Data storage self,\n        address scope,\n        bytes32 key,\n        uint256 value\n    )\n        public\n    {\n        bytes32 keyHash = hashScopeKey(scope, key);\n        self.uintData[ keyHash ] = value;\n    }\n\n    /** dev Get the uint256 value under the key in the scope of the address.\n      * @param scope The address of the contract or account setting the key.\n      * @param key The key for the value in this scope.\n      * @return value The uint256 value stored under the key in the scope.\n      */\n    function getUintData (Data storage self, address scope, bytes32 key)\n        public\n        view\n        returns (uint256 value)\n    {\n        bytes32 keyHash = hashScopeKey(scope, key);\n        value = self.uintData[ keyHash ];\n    }\n\n    /** dev Set the string value under the key in the scope of the address.\n      * @param scope The address of the contract or account setting the key.\n      * @param key The key for the value in this scope.\n      * @param value The string value to set under the key in the scope.\n      */\n    function setStringData (\n        Data storage self,\n        address scope,\n        bytes32 key,\n        string value\n    )\n        public\n    {\n        bytes32 keyHash = hashScopeKey(scope, key);\n        self.stringData[ keyHash ] = value;\n    }\n\n    /** dev Get the string value under the key in the scope of the address.\n      * @param scope The address of the contract or account setting the key.\n      * @param key The key for the value in this scope.\n      * @return value The string value stored under the key in the scope.\n      */\n    function getStringData (Data storage self, address scope, bytes32 key)\n        public\n        view\n        returns (string value)\n    {\n        bytes32 keyHash = hashScopeKey(scope, key);\n        value = self.stringData[ keyHash ];\n    }\n\n    /** dev Set the bytes32 value under the key in the scope of the address.\n      * @param scope The address of the contract or account setting the key.\n      * @param key The key for the value in this scope.\n      * @param value The bytes32 value to set under the key in the scope.\n      */\n\n    function setBytesData (\n        Data storage self,\n        address scope,\n        bytes32 key,\n        bytes32 value\n    )\n        public\n    {\n        bytes32 keyHash = hashScopeKey(scope, key);\n        self.bytesData[ keyHash ] = value;\n    }\n\n    /** dev Get the bytes32 value under the key in the scope of the address.\n      * @param scope The address of the contract or account setting the key.\n      * @param key The key for the value in this scope.\n      * @return value The bytes32 value stored under the key in the scope.\n      */\n    function getBytesData (Data storage self, address scope, bytes32 key)\n        public\n        view\n        returns (bytes32 value)\n    {\n        bytes32 keyHash = hashScopeKey(scope, key);\n        value = self.bytesData[ keyHash ];\n    }\n\n}\n",
  "sourcePath": "/home/rob/projects/ethereum-course/moodshare-final/contracts/DataStoreLibrary.sol",
  "compiler": {
    "name": "solc",
    "version": "0.4.24+commit.e67f0147.Emscripten.clang"
  },
  "schemaVersion": "2.0.1",
  "updatedAt": "2018-08-27T01:09:27.270Z"
}