{
  "contractName": "MoodShare",
  "abi": [
    {
      "constant": false,
      "inputs": [],
      "name": "unpause",
      "outputs": [],
      "payable": false,
      "stateMutability": "nonpayable",
      "type": "function"
    },
    {
      "constant": true,
      "inputs": [],
      "name": "paused",
      "outputs": [
        {
          "name": "",
          "type": "bool"
        }
      ],
      "payable": false,
      "stateMutability": "view",
      "type": "function"
    },
    {
      "constant": false,
      "inputs": [],
      "name": "renounceOwnership",
      "outputs": [],
      "payable": false,
      "stateMutability": "nonpayable",
      "type": "function"
    },
    {
      "constant": false,
      "inputs": [],
      "name": "pause",
      "outputs": [],
      "payable": false,
      "stateMutability": "nonpayable",
      "type": "function"
    },
    {
      "constant": true,
      "inputs": [],
      "name": "owner",
      "outputs": [
        {
          "name": "",
          "type": "address"
        }
      ],
      "payable": false,
      "stateMutability": "view",
      "type": "function"
    },
    {
      "constant": false,
      "inputs": [
        {
          "name": "_newOwner",
          "type": "address"
        }
      ],
      "name": "transferOwnership",
      "outputs": [],
      "payable": false,
      "stateMutability": "nonpayable",
      "type": "function"
    },
    {
      "anonymous": false,
      "inputs": [
        {
          "indexed": false,
          "name": "user",
          "type": "address"
        },
        {
          "indexed": false,
          "name": "mood",
          "type": "bytes32"
        },
        {
          "indexed": false,
          "name": "count",
          "type": "uint256"
        }
      ],
      "name": "UserMoodLogged",
      "type": "event"
    },
    {
      "anonymous": false,
      "inputs": [
        {
          "indexed": false,
          "name": "moodName",
          "type": "bytes32"
        }
      ],
      "name": "AdminMoodAdded",
      "type": "event"
    },
    {
      "anonymous": false,
      "inputs": [
        {
          "indexed": false,
          "name": "moodName",
          "type": "bytes32"
        }
      ],
      "name": "AdminMoodRemoved",
      "type": "event"
    },
    {
      "anonymous": false,
      "inputs": [],
      "name": "Pause",
      "type": "event"
    },
    {
      "anonymous": false,
      "inputs": [],
      "name": "Unpause",
      "type": "event"
    },
    {
      "anonymous": false,
      "inputs": [
        {
          "indexed": true,
          "name": "previousOwner",
          "type": "address"
        }
      ],
      "name": "OwnershipRenounced",
      "type": "event"
    },
    {
      "anonymous": false,
      "inputs": [
        {
          "indexed": true,
          "name": "previousOwner",
          "type": "address"
        },
        {
          "indexed": true,
          "name": "newOwner",
          "type": "address"
        }
      ],
      "name": "OwnershipTransferred",
      "type": "event"
    },
    {
      "constant": false,
      "inputs": [
        {
          "name": "moodName",
          "type": "bytes32"
        }
      ],
      "name": "userSetMood",
      "outputs": [],
      "payable": false,
      "stateMutability": "nonpayable",
      "type": "function"
    },
    {
      "constant": true,
      "inputs": [
        {
          "name": "moodName",
          "type": "bytes32"
        }
      ],
      "name": "userGetMoodCount",
      "outputs": [
        {
          "name": "count",
          "type": "uint256"
        }
      ],
      "payable": false,
      "stateMutability": "view",
      "type": "function"
    },
    {
      "constant": true,
      "inputs": [],
      "name": "userGetMoodCurrent",
      "outputs": [
        {
          "name": "moodName",
          "type": "bytes32"
        },
        {
          "name": "moodCount",
          "type": "uint256"
        },
        {
          "name": "moodUpdatedAt",
          "type": "uint256"
        }
      ],
      "payable": false,
      "stateMutability": "view",
      "type": "function"
    },
    {
      "constant": false,
      "inputs": [
        {
          "name": "moodName",
          "type": "bytes32"
        }
      ],
      "name": "adminMoodNameAdd",
      "outputs": [],
      "payable": false,
      "stateMutability": "nonpayable",
      "type": "function"
    },
    {
      "constant": false,
      "inputs": [
        {
          "name": "moodName",
          "type": "bytes32"
        }
      ],
      "name": "adminMoodNameRemove",
      "outputs": [],
      "payable": false,
      "stateMutability": "nonpayable",
      "type": "function"
    },
    {
      "constant": true,
      "inputs": [],
      "name": "getMoodNames",
      "outputs": [
        {
          "name": "names",
          "type": "bytes32[]"
        }
      ],
      "payable": false,
      "stateMutability": "view",
      "type": "function"
    }
  ],
  "bytecode": "0x608060405260008060146101000a81548160ff021916908315150217905550336000806101000a81548173ffffffffffffffffffffffffffffffffffffffff021916908373ffffffffffffffffffffffffffffffffffffffff1602179055506113978061006d6000396000f3006080604052600436106100ba576000357c0100000000000000000000000000000000000000000000000000000000900463ffffffff16806315510b5a146100bf5780632adc6bf6146101005780633f4ba83a146101315780635c975abb14610148578063715018a6146101775780638456cb591461018e5780638da5cb5b146101a5578063b4ac360a146101fc578063bf23bbe014610241578063c5bbc3c6146102ad578063cfca31dc146102de578063f2fde38b1461030f575b600080fd5b3480156100cb57600080fd5b506100d4610352565b604051808460001916600019168152602001838152602001828152602001935050505060405180910390f35b34801561010c57600080fd5b5061012f600480360381019080803560001916906020019092919050505061067e565b005b34801561013d57600080fd5b5061014661076f565b005b34801561015457600080fd5b5061015d61082d565b604051808215151515815260200191505060405180910390f35b34801561018357600080fd5b5061018c610840565b005b34801561019a57600080fd5b506101a3610942565b005b3480156101b157600080fd5b506101ba610a02565b604051808273ffffffffffffffffffffffffffffffffffffffff1673ffffffffffffffffffffffffffffffffffffffff16815260200191505060405180910390f35b34801561020857600080fd5b5061022b6004803603810190808035600019169060200190929190505050610a27565b6040518082815260200191505060405180910390f35b34801561024d57600080fd5b50610256610b36565b6040518080602001828103825283818151815260200191508051906020019060200280838360005b8381101561029957808201518184015260208101905061027e565b505050509050019250505060405180910390f35b3480156102b957600080fd5b506102dc6004803603810190808035600019169060200190929190505050610b92565b005b3480156102ea57600080fd5b5061030d6004803603810190808035600019169060200190929190505050610fff565b005b34801561031b57600080fd5b50610350600480360381019080803573ffffffffffffffffffffffffffffffffffffffff16906020019092919050505061115c565b005b60008060008060149054906101000a900460ff1615151561037257600080fd5b73__DataStoreLibrary______________________63eb7896d86001337f63757272656e742d6d6f6f642d6e616d650000000000000000000000000000006040518463ffffffff167c0100000000000000000000000000000000000000000000000000000000028152600401808481526020018373ffffffffffffffffffffffffffffffffffffffff1673ffffffffffffffffffffffffffffffffffffffff1681526020018260001916600019168152602001935050505060206040518083038186803b15801561044257600080fd5b505af4158015610456573d6000803e3d6000fd5b505050506040513d602081101561046c57600080fd5b8101908080519060200190929190505050925073__DataStoreLibrary______________________632328c4ad600133866040518463ffffffff167c0100000000000000000000000000000000000000000000000000000000028152600401808481526020018373ffffffffffffffffffffffffffffffffffffffff1673ffffffffffffffffffffffffffffffffffffffff1681526020018260001916600019168152602001935050505060206040518083038186803b15801561052f57600080fd5b505af4158015610543573d6000803e3d6000fd5b505050506040513d602081101561055957600080fd5b8101908080519060200190929190505050915073__DataStoreLibrary______________________632328c4ad6001337f63757272656e742d6d6f6f642d74696d657374616d70000000000000000000006040518463ffffffff167c0100000000000000000000000000000000000000000000000000000000028152600401808481526020018373ffffffffffffffffffffffffffffffffffffffff1673ffffffffffffffffffffffffffffffffffffffff1681526020018260001916600019168152602001935050505060206040518083038186803b15801561063c57600080fd5b505af4158015610650573d6000803e3d6000fd5b505050506040513d602081101561066657600080fd5b81019080805190602001909291905050509050909192565b6000806000809054906101000a900473ffffffffffffffffffffffffffffffffffffffff1673ffffffffffffffffffffffffffffffffffffffff163373ffffffffffffffffffffffffffffffffffffffff161415156106dc57600080fd5b6106e5836111c3565b809250819350505080156106f85761076a565b60058390806001815401808255809150509060018203906000526020600020016000909192909190915090600019169055507f16c585511541549cedf70a54a63d078ee9b5963f74211ed28ddea35f241335ed8360405180826000191660001916815260200191505060405180910390a15b505050565b6000809054906101000a900473ffffffffffffffffffffffffffffffffffffffff1673ffffffffffffffffffffffffffffffffffffffff163373ffffffffffffffffffffffffffffffffffffffff161415156107ca57600080fd5b600060149054906101000a900460ff1615156107e557600080fd5b60008060146101000a81548160ff0219169083151502179055507f7805862f689e2f13df9f062ff482ad3ad112aca9e0847911ed832e158c525b3360405160405180910390a1565b600060149054906101000a900460ff1681565b6000809054906101000a900473ffffffffffffffffffffffffffffffffffffffff1673ffffffffffffffffffffffffffffffffffffffff163373ffffffffffffffffffffffffffffffffffffffff1614151561089b57600080fd5b6000809054906101000a900473ffffffffffffffffffffffffffffffffffffffff1673ffffffffffffffffffffffffffffffffffffffff167ff8df31144d9c2f0f6b59d69b8b98abd5459d07f2742c4df920b25aae33c6482060405160405180910390a260008060006101000a81548173ffffffffffffffffffffffffffffffffffffffff021916908373ffffffffffffffffffffffffffffffffffffffff160217905550565b6000809054906101000a900473ffffffffffffffffffffffffffffffffffffffff1673ffffffffffffffffffffffffffffffffffffffff163373ffffffffffffffffffffffffffffffffffffffff1614151561099d57600080fd5b600060149054906101000a900460ff161515156109b957600080fd5b6001600060146101000a81548160ff0219169083151502179055507f6985a02210a168e66602d3235cb6db0e70f92b3ba4d376a33c0f3d9434bff62560405160405180910390a1565b6000809054906101000a900473ffffffffffffffffffffffffffffffffffffffff1681565b60008060149054906101000a900460ff16151515610a4457600080fd5b73__DataStoreLibrary______________________632328c4ad600133856040518463ffffffff167c0100000000000000000000000000000000000000000000000000000000028152600401808481526020018373ffffffffffffffffffffffffffffffffffffffff1673ffffffffffffffffffffffffffffffffffffffff1681526020018260001916600019168152602001935050505060206040518083038186803b158015610af457600080fd5b505af4158015610b08573d6000803e3d6000fd5b505050506040513d6020811015610b1e57600080fd5b81019080805190602001909291905050509050919050565b60606005805480602002602001604051908101604052809291908181526020018280548015610b8857602002820191906000526020600020905b81546000191681526020019060010190808311610b70575b5050505050905090565b60008060149054906101000a900460ff16151515610baf57600080fd5b81600080610bbc836111c3565b8092508193505050801515610bd057600080fd5b73__DataStoreLibrary______________________632328c4ad600133886040518463ffffffff167c0100000000000000000000000000000000000000000000000000000000028152600401808481526020018373ffffffffffffffffffffffffffffffffffffffff1673ffffffffffffffffffffffffffffffffffffffff1681526020018260001916600019168152602001935050505060206040518083038186803b158015610c8057600080fd5b505af4158015610c94573d6000803e3d6000fd5b505050506040513d6020811015610caa57600080fd5b81019080805190602001909291905050509350838060010194505073__DataStoreLibrary______________________632713f5b560013388886040518563ffffffff167c0100000000000000000000000000000000000000000000000000000000028152600401808581526020018473ffffffffffffffffffffffffffffffffffffffff1673ffffffffffffffffffffffffffffffffffffffff168152602001836000191660001916815260200182815260200194505050505060006040518083038186803b158015610d7d57600080fd5b505af4158015610d91573d6000803e3d6000fd5b5050505073__DataStoreLibrary______________________635a16976d6001337f63757272656e742d6d6f6f642d6e616d65000000000000000000000000000000896040518563ffffffff167c0100000000000000000000000000000000000000000000000000000000028152600401808581526020018473ffffffffffffffffffffffffffffffffffffffff1673ffffffffffffffffffffffffffffffffffffffff1681526020018360001916600019168152602001826000191660001916815260200194505050505060006040518083038186803b158015610e7557600080fd5b505af4158015610e89573d6000803e3d6000fd5b5050505073__DataStoreLibrary______________________632713f5b56001337f63757272656e742d6d6f6f642d74696d657374616d7000000000000000000000426040518563ffffffff167c0100000000000000000000000000000000000000000000000000000000028152600401808581526020018473ffffffffffffffffffffffffffffffffffffffff1673ffffffffffffffffffffffffffffffffffffffff168152602001836000191660001916815260200182815260200194505050505060006040518083038186803b158015610f6557600080fd5b505af4158015610f79573d6000803e3d6000fd5b505050507fde8a79d3952dcf6ec3cc87944a52e7069c923950998524b46d66e7e697858cbf338686604051808473ffffffffffffffffffffffffffffffffffffffff1673ffffffffffffffffffffffffffffffffffffffff1681526020018360001916600019168152602001828152602001935050505060405180910390a15050505050565b60008060008060009054906101000a900473ffffffffffffffffffffffffffffffffffffffff1673ffffffffffffffffffffffffffffffffffffffff163373ffffffffffffffffffffffffffffffffffffffff1614151561105f57600080fd5b611068846111c3565b809350819450505081151561107c57611156565b8290505b6001600580549050038110156110db576005600182018154811015156110a257fe5b90600052602060002001546005828154811015156110bc57fe5b9060005260206000200181600019169055508080600101915050611080565b60056001600580549050038154811015156110f257fe5b90600052602060002001600090556005805480919060019003611115919061131a565b507fe5877e4e8f3e6d8db197d095bcdf5d82deb51223d31645a9674661bb724611088460405180826000191660001916815260200191505060405180910390a15b50505050565b6000809054906101000a900473ffffffffffffffffffffffffffffffffffffffff1673ffffffffffffffffffffffffffffffffffffffff163373ffffffffffffffffffffffffffffffffffffffff161415156111b757600080fd5b6111c081611220565b50565b60008060009050600091505b60058054905082101561121b5782600019166005838154811015156111f057fe5b906000526020600020015460001916141561120e576001905061121b565b81806001019250506111cf565b915091565b600073ffffffffffffffffffffffffffffffffffffffff168173ffffffffffffffffffffffffffffffffffffffff161415151561125c57600080fd5b8073ffffffffffffffffffffffffffffffffffffffff166000809054906101000a900473ffffffffffffffffffffffffffffffffffffffff1673ffffffffffffffffffffffffffffffffffffffff167f8be0079c531659141344cd1fd0a4f28419497f9722a3daafe3b4186f6b6457e060405160405180910390a3806000806101000a81548173ffffffffffffffffffffffffffffffffffffffff021916908373ffffffffffffffffffffffffffffffffffffffff16021790555050565b815481835581811115611341578183600052602060002091820191016113409190611346565b5b505050565b61136891905b8082111561136457600081600090555060010161134c565b5090565b905600a165627a7a72305820241784f22940eb08b46aacaab5abe61efd0118032925fe3938d11a866e6b1f9e0029",
  "source": "pragma solidity ^0.4.22;\n\nimport 'openzeppelin-solidity/contracts/lifecycle/Pausable.sol';\n\nimport './DataStoreLibrary.sol';\n\n/** @title MoodShare */\n/** @dev A version of the mood tracking contract using a library implementing the Unstructured Storage pattern. */ \ncontract MoodShare is Pausable {\n\n    // Constants\n    \n    // Storage keys for users' current moods.\n    bytes32 constant private CURRENT_MOOD_NAME = 'current-mood-name';\n    bytes32 constant private CURRENT_MOOD_TIMESTAMP = 'current-mood-timestamp';\n\n    // Events\n    \n    event UserMoodLogged(address user, bytes32 mood, uint256 count);\n\n    event AdminMoodAdded(bytes32 moodName);\n    event AdminMoodRemoved(bytes32 moodName);\n\n    // Storage\n    \n    DataStoreLibrary.Data data;\n\n    // We need to return this array, so it cannot be a string array\n    bytes32[] private moodNames;\n\n    // Modifiers\n\n    // Make sure the mood is in moodNames\n    modifier knownMood (bytes32 moodName) {\n        uint256 index;\n        bool found;\n        (index, found) = getMoodIndex(moodName);\n        require(found);\n        _;\n    }\n\n    // Functions\n\n    // User functions\n    \n    /** @dev set the user's current mood and update their mood totals.\n      * @param moodName The mood to set for the user.\n      */\n    function userSetMood (bytes32 moodName)\n        public\n        whenNotPaused()\n        knownMood(moodName)\n    {\n        uint256 count = DataStoreLibrary.getUintData(\n            data,\n            msg.sender,\n            moodName\n        );\n        count++;\n        DataStoreLibrary.setUintData(data, msg.sender, moodName, count);\n        DataStoreLibrary.setBytesData(\n            data,\n            msg.sender,\n            CURRENT_MOOD_NAME,\n            moodName\n        );\n        DataStoreLibrary.setUintData(\n            data,\n            msg.sender,\n            CURRENT_MOOD_TIMESTAMP,\n            block.timestamp\n        );\n        emit UserMoodLogged(msg.sender, moodName, count);\n    }\n\n    /** @dev Get the user's total count for this mood.\n      * @param moodName The mood to get for the user.\n      * @return The count of total number of times user has logged this mood.\n      */\n    function userGetMoodCount (bytes32 moodName) public view\n        whenNotPaused()\n        returns (uint256 count)\n    {\n        count = DataStoreLibrary.getUintData(data, msg.sender, moodName);\n    }\n\n    /** @dev Get the count of the user's currently set mood.\n      * @return The user's current mood, the number of times the user has logged their current mood, and the UNIX time of the block it was last updated in.\n      */\n    function userGetMoodCurrent () public view\n        whenNotPaused()\n        returns (bytes32 moodName, uint256 moodCount, uint256 moodUpdatedAt)\n    {\n        moodName = DataStoreLibrary.getBytesData(\n            data,\n            msg.sender,\n            CURRENT_MOOD_NAME\n        );\n        moodCount = DataStoreLibrary.getUintData(\n            data,\n            msg.sender,\n            moodName\n            );\n        moodUpdatedAt = DataStoreLibrary.getUintData(\n            data,\n            msg.sender,\n            CURRENT_MOOD_TIMESTAMP\n        );\n    }\n\n    // Admin functions\n    \n    /* @dev Add a mood name, represented as bytes32.\n     * @param moodName The name of the mood to add.\n     */\n    function adminMoodNameAdd(bytes32 moodName)\n        public\n        onlyOwner()\n    {\n        uint256 index;\n        bool found;\n        (index, found) = getMoodIndex(moodName);\n\n        // Found? don't add it again\n        if (found) {\n            return;\n        }\n        moodNames.push(moodName);\n        emit AdminMoodAdded(moodName);\n    }\n    \n    /** @dev This removes a mood name, if contained. It is not designed to handle large arrays, it will run out of gas in that scenario.\n      * @param moodName The mood name to remove.\n      */\n    function adminMoodNameRemove(bytes32 moodName)\n        public\n        onlyOwner()\n    {\n        uint256 index;\n        bool found;\n        (index, found) = getMoodIndex(moodName);\n        // Not found? There's nothing to remove\n        if (! found) {\n            return;\n        }\n        // Delete the element and roll down those above it.\n        for (uint i = index; i < moodNames.length-1; i++ ) {\n            moodNames[i] = moodNames[i+1];\n        }\n        delete moodNames[moodNames.length - 1];\n        moodNames.length--;\n        emit AdminMoodRemoved(moodName);\n    }\n\n    // Utility code\n        \n    /* @dev Get the moods the system currently supports.\n     * @return The mood name strings currently in use, as bytes32.\n     */\n    function getMoodNames() public view returns (bytes32[] names) {\n        names = moodNames;\n    }\n\n    /** @dev Determine the mood's index in the mood array (or none).\n      * @param moodName The name of the mood to find the index of.\n      * @return the index of the mood, only valid if found is true.\n      */\n    function getMoodIndex(bytes32 moodName) private view\n        returns (uint256 index, bool found)\n    {\n        found = false;\n        // Find name in moodNames\n        for (index = 0; index < moodNames.length; index++) {\n            if ( moodNames[index] == moodName ) {\n                found = true;\n                break;\n            }\n        }\n    }\n\n}\n",
  "sourcePath": "/home/rob/projects/ethereum-course/moodshare-final/contracts/MoodShare.sol",
  "compiler": {
    "name": "solc",
    "version": "0.4.24+commit.e67f0147.Emscripten.clang"
  },
  "schemaVersion": "2.0.1",
  "updatedAt": "2018-08-27T01:09:27.274Z"
}